:020000040800F2
:10000000008000205D2A0008A1290008AD29000811
:10001000B3290008B9290008BF2900080000000022
:10002000000000000000000000000000C5290008DA
:10003000D129000800000000DD290008E929000896
:10004000A52A0008A52A0008A52A0008A52A000854
:10005000A52A0008A52A0008A52A0008A52A000844
:10006000A52A0008A52A0008A52A0008A52A000834
:10007000A52A0008A52A0008A52A0008A52A000824
:10008000A52A0008A52A0008A52A0008A52A000814
:10009000A52A0008A52A0008A52A0008A52A000804
:1000A000A52A0008A52A0008A52A0008A52A0008F4
:1000B000A52A0008A52A0008A52A0008A52A0008E4
:1000C000A52A0008A52A0008A52A0008A52A0008D4
:1000D000A52A0008A52A0008A52A0008A52A0008C4
:1000E000A52A0008A52A0008A52A0008A52A0008B4
:1000F000A52A000800000000A52A0008A52A00087B
:100100000000000000000000A52A0008A52A000841
:10011000A52A0008A52A0008A52A0008000000005A
:10012000A52A0008000000000000000000000000F8
:0C01300000000000000000005FF808F173
:10013C0010B5054C237833B9044B13B10448AFF315
:10014C0000800123237010BD04000020000000007B
:10015C00002B000808B5034B1BB103490348AFF350
:10016C00008008BD0000000008000020002B0008E3
:10017C0080B500AF032000F079FB002000F006F8FA
:10018C0002F016FB0023184680BD000080B582B03B
:10019C0000AF7860094B1B68094AA2FB03239B093B
:1001AC00184600F08AFB002279684FF0FF3000F00F
:1001BC0068FB002318460837BD4680BD00000020B0
:1001CC00D34D621080B400AF044B1B680133034A5B
:1001DC00136000BFBD4680BC704700BF20000020EC
:1001EC0080B400AF024B1B681846BD4680BC7047FC
:1001FC002000002080B58EB000AF7860002387F817
:10020C00373000233B630023FB627B68002B01D15A
:10021C0001231EE17B681B69002B7B68DB6C002BC8
:10022C0015D17B6800221A657B68002283F8482070
:10023C008A4A8A4B1B6A43F001031362874B1B6A81
:10024C0003F00103BB60BB68786802F0E1FA7B68DD
:10025C00DB6C03F01003002B40F0F6807B68DB6C4A
:10026C0023F4885323F0020343F002027B68DA6420
:10027C007B497B4B5B6823F440327B685B681343A0
:10028C004B607B68DA687B685B691A437B68D96B67
:10029C004FF400733B623B6A93FAA3F3FB61FB6977
:1002AC00B3FA83F301FA03F31A437B681B6A1A430C
:1002BC007B68596A0223BB62BB6A93FAA3F37B6225
:1002CC007B6AB3FA83F301FA03F31343FA6A134319
:1002DC00FB627B685B6B102B07D07B685A6B7B686F
:1002EC009B6B1343FA6A1343FB627B681B681B68A6
:1002FC0003F04003402B4DD07B689B69FA6A134393
:10030C00FB627B689A687B68DB691A437B681B69B4
:10031C00B3F5807F03D07B681B69012B02D14FF4AE
:10032C00807300E0002313433A6B13433B637B68F9
:10033C00DB6A012B24D17B685B6A002B14D17B68B0
:10034C001B6B5A1E4FF46043BB61BB6993FAA3F35A
:10035C007B617B69B3FA83F302FA03F343F4006322
:10036C003A6B13433B630BE07B68DB6C43F020027E
:10037C007B68DA647B681B6D43F001027B681A654D
:10038C007B681A687B681B685968364B0B40396B65
:10039C000B4353607B681A687B681B689968324B07
:1003AC000B40F96A0B4393607B681B69B3F5807F44
:1003BC0003D07B681B69012B18D17B681B687A689A
:1003CC001268126B22F0F8717A68926A501E4FF024
:1003DC00F8723A613A6992FAA2F2FA60FA68B2FAE1
:1003EC0082F200FA02F20A431A6307E07B681B6888
:1003FC007A681268126B22F0F8721A637B681B68B9
:10040C009A681A4B1340FA6A93420BD17B6800220C
:10041C001A657B68DB6C23F0030343F001027B68F5
:10042C00DA6414E07B68DB6C23F0120343F01002F7
:10043C007B68DA647B681B6D43F001027B681A658C
:10044C00012387F8373002E0012387F8373097F81B
:10045C00373018463837BD4680BD00BF00380240E3
:10046C0000270140FF16FCFC89F1FFC0FEFF80BF96
:10047C0090B484B000AF786039600023FB73002324
:10048C00BB607B6893F84830012B01D1022334E127
:10049C007B68012283F848203B685B68062B1CD8DC
:1004AC007B6819687B681B68186C3B685A68134634
:1004BC009B001344053B1F2202FA03F3DB43184055
:1004CC003B681C683B685A6813469B001344053B09
:1004DC0004FA03F303430B647EE03B685B680C2B6C
:1004EC001CD87B6819687B681B68D86B3B685A689A
:1004FC0013469B001344233B1F2202FA03F3DB43F6
:10050C0018403B681C683B685A6813469B001344B0
:10051C00233B04FA03F30343CB635DE03B685B6866
:10052C00122B1CD87B6819687B681B68986B3B681E
:10053C005A6813469B001344413B1F2202FA03F3F3
:10054C00DB4318403B681C683B685A6813469B00A9
:10055C001344413B04FA03F303438B633CE03B68D5
:10056C005B68182B1CD87B6819687B681B68586BF8
:10057C003B685A6813469B0013445F3B1F2202FAE8
:10058C0003F3DB4318403B681C683B685A6813460E
:10059C009B0013445F3B04FA03F303434B631BE0E0
:1005AC007B6819687B681B68186B3B685A68134634
:1005BC009B0013447D3B1F2202FA03F3DB431840DC
:1005CC003B681C683B685A6813469B0013447D3B90
:1005DC0004FA03F303430B633B681B68092B1AD81B
:1005EC007B6819687B681B6858693B681A681346F6
:1005FC005B001344072202FA03F3DB4318403B6809
:10060C009C683B681A6813465B00134404FA03F3B6
:10061C0003434B6142E03B681B68132B1CD87B687F
:10062C0019687B681B6818693B681A6813465B007D
:10063C0013441E3B072202FA03F3DB4318403B68CA
:10064C009C683B681A6813465B0013441E3B04FA13
:10065C0003F303430B6121E03B681B681A2B1CD886
:10066C007B6819687B681B68D8683B681A681346F6
:10067C005B0013443C3B072202FA03F3DB431840B4
:10068C003B689C683B681A6813465B0013443C3B10
:10069C0004FA03F30343CB6000E000BF3B681B6824
:1006AC00102B03D03B681B68112B21D1154B5B68B9
:1006BC0003F40003002B1BD1124A124B5B6843F46A
:1006CC00000353603B681B68102B11D10E4B1B6849
:1006DC000E4AA2FB03239A0C13469B0013445B00A7
:1006EC00BB6002E0BB68013BBB60BB68002BF9D16F
:1006FC007B68002283F84820FB7B18461037BD46E8
:10070C0090BC7047002701400000002083DE1B4393
:10071C0080B485B000AF78607B6803F00703FB60A2
:10072C000C4BDB68BB60BA684FF6FF031340BB6031
:10073C00FB681A02BB68134343F0BF6343F40033F6
:10074C00BB60044ABB68D36000BF1437BD4680BC95
:10075C00704700BF00ED00E080B400AF044BDB68D5
:10076C001B0A03F007031846BD4680BC704700BF48
:10077C0000ED00E080B483B000AF03463960FB713C
:10078C0097F90730002B0BDA0D49FB7903F00F03B7
:10079C00043B3A68D2B21201D2B20B441A7609E089
:1007AC00084997F907303A68D2B21201D2B20B4419
:1007BC0083F8002300BF0C37BD4680BC704700BFD8
:1007CC0000ED00E000E100E080B489B000AFF8601B
:1007DC00B9607A60FB6803F00703FB61FB69C3F146
:1007EC000703042B28BF0423BB61FB690433062BCE
:1007FC0002D9FB69033B00E000237B610122BB694A
:10080C0002FA03F35A1EBB681A407B699A40012115
:10081C007B6901FA03F3591E7B680B40134318469E
:10082C002437BD4680BC704780B582B000AF78607D
:10083C007B68013BB3F1807F01D301230FE00A4AAF
:10084C007B68013B53600F214FF0FF30FFF792FFA5
:10085C00054B00229A60044B07221A6000231846AD
:10086C000837BD4680BD00BF10E000E080B582B007
:10087C0000AF78607868FFF74BFF00BF0837BD46C4
:10088C0080BD80B586B000AF0346B9607A60FB735B
:10089C0000237B61FFF760FF78617A68B96878693B
:1008AC00FFF792FF024697F90F3011461846FFF7F3
:1008BC0061FF00BF1837BD4680BD80B582B000AF68
:1008CC0078607868FFF7B0FF034618460837BD46D6
:1008DC0080BD000080B487B000AF78603960002321
:1008EC007B610023FB6000233B6154E13B681A6889
:1008FC0001217B6901FA03F31340FB60FB68002BB9
:10090C0000F046813B685B68022B03D03B685B6858
:10091C00122B23D17B69DA087B68083253F822301A
:10092C003B617B6903F007039B000F2202FA03F380
:10093C00DB433A6913403B613B681A697B6903F0FE
:10094C0007039B0002FA03F33A6913433B617B698B
:10095C00DA087B680832396943F822107B681B6817
:10096C003B617B695B00032202FA03F3DB433A69C8
:10097C0013403B613B685B6803F003027B695B00DF
:10098C0002FA03F33A6913433B617B683A691A60D4
:10099C003B685B68012B0BD03B685B68022B07D074
:1009AC003B685B68112B03D03B685B68122B30D122
:1009BC007B689B683B617B695B00032202FA03F353
:1009CC00DB433A6913403B613B68DA687B695B0047
:1009DC0002FA03F33A6913433B617B683A699A6004
:1009EC007B685B683B6101227B6902FA03F3DB43A2
:1009FC003A6913403B613B685B681B0903F00102D9
:100A0C007B6902FA03F33A6913433B617B683A69E9
:100A1C005A607B68DB683B617B695B00032202FAEE
:100A2C0003F3DB433A6913403B613B689A687B698B
:100A3C005B0002FA03F33A6913433B617B683A6942
:100A4C00DA603B685B6803F08053002B00F0A080F9
:100A5C00574A574B1B6A43F001031362544B1B6AF2
:100A6C0003F00103BB60BB68524A7B699B080233ED
:100A7C0052F823303B617B6903F003039B000F2288
:100A8C0002FA03F3DB433A6913403B617B684A4A41
:100A9C00934219D07B68494A934213D07B68484AE9
:100AAC0093420DD07B68474A934207D07B68464AF5
:100ABC00934201D1042308E0052306E0032304E05C
:100ACC00022302E0012300E000237A6902F0030212
:100ADC00920093403A6913433B6136497B699B080A
:100AEC0002333A6941F82320384B1B683B61FB68A1
:100AFC00DB433A6913403B613B685B6803F480332A
:100B0C00002B03D03A69FB6813433B612F4A3B69C6
:100B1C0013602E4B5B683B61FB68DB433A69134007
:100B2C003B613B685B6803F40033002B03D03A69EC
:100B3C00FB6813433B61254A3B695360234B9B681D
:100B4C003B61FB68DB433A6913403B613B685B6884
:100B5C0003F48013002B03D03A69FB6813433B6109
:100B6C001A4A3B699360194BDB683B61FB68DB43BA
:100B7C003A6913403B613B685B6803F40013002B3C
:100B8C0003D03A69FB6813433B61104A3B69D3605D
:100B9C007B6901337B613B681A687B6922FA03F33A
:100BAC00002B7FF4A3AE00BF1C37BD4680BC704742
:100BBC0000380240000001400000024000040240E6
:100BCC0000080240000C02400010024000040140EA
:100BDC0080B483B000AF78600B467B8013467B708B
:100BEC007B78002B03D07A887B689A6103E07B8842
:100BFC001A047B689A6100BF0C37BD4680BC7047F5
:100C0C0080B584B000AF78600023BB600023FB7319
:100C1C007B68002B01D10123A8E07B6893F8353069
:100C2C00DBB2002B06D17B68002283F83420786875
:100C3C0001F02EFE7B68022283F835207B681B684E
:100C4C007A681268126822F001021A600023FB73A2
:100C5C000AE07B681A68FB7B04339B001344002278
:100C6C005A60FB7B0133FB73FB7B0F2BF1D97B6849
:100C7C001B687A681268926842F004029A607B687A
:100C8C001A687B681B6859683A4B0B40796848684E
:100C9C007968896808437968896A08437968C96AF8
:100CAC0008437968C96908437968096A084379680F
:100CBC00896908437968496A01430B435360786832
:100CCC0000F05AF87B681B687A681268126822F088
:100CDC00FE017A68D0687A68126910437A685269A2
:100CEC0010437A68126B02430A431A607B681B68D4
:100CFC007A681268126842F001021A60FFF770FA03
:100D0C00B8600CE0FFF76CFA0246BB68D31AB3F577
:100D1C007A7F04D97B6808229A63032326E07B68D8
:100D2C001B689B6803F00103012BEBD1FFF758FA0A
:100D3C00B8600CE0FFF754FA0246BB68D31AB3F55F
:100D4C007A7F04D97B6810229A6303230EE07B68B8
:100D5C001B689B6803F01003102BEBD17B680022FF
:100D6C009A637B68012283F83520002318461037DC
:100D7C00BD4680BD0F0000FC80B584B000AF78602C
:100D8C000023FB60FFF72CFAF8600CE0FFF728FA61
:100D9C000246FB68D31AB3F57A7F04D97B6801222B
:100DAC009A63032307E07B681B689B6803F02003AE
:100DBC00202BEBD1002318461037BD4680BD000018
:100DCC0080B5E6B000AF3B1D18600023C7F890312A
:100DDC003B1D1B681B6803F00103002B00F02381F3
:100DEC00BC4B9B6803F00C03082B0CD0B94B9B68D5
:100DFC0003F00C030C2B46D1B64B9B6803F48033E9
:100E0C00B3F5803F3FD14FF40033C7F88C31D7F89E
:100E1C008C3193FAA3F3C7F88831D7F88831B3FA39
:100E2C0083F3DBB25B09DBB243F00103DBB2012BD2
:100E3C0002D1A84B1B6801E0A64B5B6B4FF4003250
:100E4C00C7F88421D7F8842192FAA2F2C7F880213E
:100E5C00D7F88021B2FA82F252B242F0200252B29A
:100E6C00D2B202F01F02012101FA02F21340002B50
:100E7C0000F0D8803B1D1B685B68002B40F0D280D3
:100E8C00012300F010BF3B1D1B685B68012B06D1D2
:100E9C00904A904B1B6843F4803313602FE03B1D4A
:100EAC001B685B68002B0CD18A4A8A4B1B6823F4A5
:100EBC0080331360874A874B1B6823F480231360AD
:100ECC001DE03B1D1B685B68052B0CD1814A814BD7
:100EDC001B6843F4802313607E4A7E4B1B6843F4EB
:100EEC00803313600BE07B4A7A4B1B6823F480330E
:100EFC001360784A774B1B6823F4802313603B1DE7
:100F0C001B685B68002B46D0FFF76AF9C7F89001A5
:100F1C000AE0FFF765F90246D7F89031D31A642B33
:100F2C0002D9032300F0BFBE4FF40033C7F87C3165
:100F3C00D7F87C3193FAA3F3C7F87831D7F8783126
:100F4C00B3FA83F3DBB25B09DBB243F00103DBB230
:100F5C00012B02D15F4B1B6801E05E4B5B6B4FF4C6
:100F6C000032C7F87421D7F8742192FAA2F2C7F8AC
:100F7C007021D7F87021B2FA82F252B242F02002FC
:100F8C0052B2D2B202F01F02012101FA02F2134056
:100F9C00002BBED047E0FFF723F9C7F890010AE019
:100FAC00FFF71EF90246D7F89031D31A642B02D9F9
:100FBC00032300F078BE4FF40033C7F86C31D7F838
:100FCC006C3193FAA3F3C7F86831D7F86831B3FAE8
:100FDC0083F3DBB25B09DBB243F00103DBB2012B21
:100FEC0002D13C4B1B6801E03A4B5B6B4FF4003277
:100FFC00C7F86421D7F8642192FAA2F2C7F86021ED
:10100C00D7F86021B2FA82F252B242F0200252B208
:10101C00D2B202F01F02012101FA02F21340002B9E
:10102C00BED100E000BF3B1D1B681B6803F0020330
:10103C00002B00F03E81274B9B6803F00C03042B24
:10104C000BD0244B9B6803F00C030C2B5FD1214B72
:10105C009B6803F48033002B59D10223C7F85C3111
:10106C00D7F85C3193FAA3F3C7F85831D7F8583155
:10107C00B3FA83F3DBB25B09DBB243F00103DBB2FF
:10108C00012B02D1134B1B6801E0124B5B6B02224C
:10109C00C7F85421D7F8542192FAA2F2C7F850217C
:1010AC00D7F85021B2FA82F252B242F0200252B278
:1010BC00D2B202F01F02012101FA02F21340002BFE
:1010CC000AD03B1D1B68DB68012B05D0012300F007
:1010DC00EABD00BF00380240B948B94B5B6823F445
:1010EC00F8523B1D1B6819694FF4F853C7F84C3183
:1010FC00D7F84C3193FAA3F3C7F84831D7F84831F5
:10110C00B3FA83F301FA03F313434360D1E03B1DBD
:10111C001B68DB68002B73D00123C7F84431D7F868
:10112C00443193FAA3F3C7F84031D7F84031B3FAFE
:10113C0083F303F1845303F58E139B001A460123AA
:10114C001360FFF74DF8C7F890010AE0FFF748F875
:10115C000246D7F89031D31A022B02D9032300F0A0
:10116C00A2BD0223C7F83C31D7F83C3193FAA3F364
:10117C00C7F83831D7F83831B3FA83F3DBB25B09EF
:10118C00DBB243F00103DBB2012B02D18C4B1B68A9
:10119C0001E08B4B5B6B0222C7F83421D7F834216A
:1011AC0092FAA2F2C7F83021D7F83021B2FA82F2C3
:1011BC0052B242F0200252B2D2B202F01F0201210E
:1011CC0001FA02F21340002BC0D07D487C4B5B68C7
:1011DC0023F4F8523B1D1B6819694FF4F853C7F8F8
:1011EC002C31D7F82C3193FAA3F3C7F82831D7F860
:1011FC002831B3FA83F301FA03F31343436058E045
:10120C000123C7F82431D7F8243193FAA3F3C7F894
:10121C002031D7F82031B3FA83F303F1845303F56B
:10122C008E139B001A4600231360FEF7D9FFC7F8F4
:10123C0090010AE0FEF7D4FF0246D7F89031D31A9A
:10124C00022B02D9032300F02EBD0223C7F81C3158
:10125C00D7F81C3193FAA3F3C7F81831D7F8183123
:10126C00B3FA83F3DBB25B09DBB243F00103DBB20D
:10127C00012B02D1524B1B6801E0514B5B6B0222DC
:10128C00C7F81421D7F8142192FAA2F2C7F810214A
:10129C00D7F81021B2FA82F252B242F0200252B2C6
:1012AC00D2B202F01F02012101FA02F21340002B0C
:1012BC00C0D13B1D1B681B6803F01003002B00F012
:1012CC00C5813F4B9B6803F00C03002B40F0DE8084
:1012DC004FF40073C7F80C31D7F80C3193FAA3F321
:1012EC00C7F80831D7F80831B3FA83F3DBB25B09DE
:1012FC00DBB243F00103DBB2012B02D1304B1B6894
:10130C0001E02F4B5B6B4FF40072C7F80421D7F848
:10131C00042192FAA2F2C7F80021D7F80021B2FA00
:10132C0082F252B242F0200252B2D2B202F01F024A
:10133C00012101FA02F21340002B07D03B1D1B6860
:10134C009B69002B02D1012300F0ADBC3B1D1B6837
:10135C001A6A1B4B5B6803F460439A4232D93B1DFB
:10136C001B681B6A184600F003FF0346002B02D0D3
:10137C00012300F098BC1249114B5B6823F46042C6
:10138C003B1D1B681B6A13434B600D480C4B5B6881
:10139C0023F07F423B1D1B68D9694FF07F43C7F890
:1013AC00FC30D7F8FC3093FAA3F3C7F8F830D7F831
:1013BC00F830B3FA83F301FA03F31343436031E0DB
:1013CC0000380240B949B94B5B6823F460423B1DBD
:1013DC001B681B6A13434B60B448B44B5B6823F027
:1013EC007F423B1D1B68D9694FF07F43C7F8F4302F
:1013FC00D7F8F43093FAA3F3C7F8F030D7F8F030FD
:10140C00B3FA83F301FA03F3134343603B1D1B68E8
:10141C001B6A184600F0ACFE0346002B02D00123D9
:10142C0000F041BC3B1D1B681A6A4FF46043C7F8BF
:10143C00E430D7F8E43093FAA3F3C7F8E030D7F8E8
:10144C00E030B3FA83F322FA03F301334FF4004292
:10145C0002FA03F3954A926802F0F001F022C7F801
:10146C00EC20D7F8EC2092FAA2F2C7F8E820D7F8D3
:10147C00E820B2FA82F221FA02F28D498A5CD3405A
:10148C008C4A13600020FEF781FEDFE03B1D1B68D9
:10149C009B69002B7FD04FF48073C7F8DC30D7F8F2
:1014AC00DC3093FAA3F3C7F8D830D7F8D830B3FAB6
:1014BC0083F303F1845303F58E139B001A46012327
:1014CC001360FEF78DFEC7F8900109E0FEF788FE69
:1014DC000246D7F89031D31A022B01D90323E2E349
:1014EC004FF40073C7F8D430D7F8D43093FAA3F381
:1014FC00C7F8D030D7F8D030B3FA83F3DBB25B093E
:10150C00DBB243F00103DBB2012B02D1674B1B684A
:10151C0001E0664B5B6B4FF40072C7F8CC20D7F838
:10152C00CC2092FAA2F2C7F8C820D7F8C820B2FA99
:10153C0082F252B242F0200252B2D2B202F01F0238
:10154C00012101FA02F21340002BBFD05749574B2F
:10155C005B6823F460423B1D1B681B6A13434B60A2
:10156C005248524B5B6823F07F423B1D1B68D96984
:10157C004FF07F43C7F8C430D7F8C43093FAA3F3C5
:10158C00C7F8C030D7F8C030B3FA83F301FA03F3CD
:10159C00134343605AE04FF48073C7F8BC30D7F85C
:1015AC00BC3093FAA3F3C7F8B830D7F8B830B3FA15
:1015BC0083F303F1845303F58E139B001A46002327
:1015CC001360FEF70DFEC7F8900109E0FEF708FE68
:1015DC000246D7F89031D31A022B01D9032362E3C8
:1015EC004FF40073C7F8B430D7F8B43093FAA3F3C0
:1015FC00C7F8B030D7F8B030B3FA83F3DBB25B097D
:10160C00DBB243F00103DBB2012B02D1274B1B6889
:10161C0001E0264B5B6B4FF40072C7F8AC20D7F897
:10162C00AC2092FAA2F2C7F8A820D7F8A820B2FAF8
:10163C0082F252B242F0200252B2D2B202F01F0237
:10164C00012101FA02F21340002BBFD13B1D1B6894
:10165C001B6803F00803002B00F0AE803B1D1B68D9
:10166C005B69002B55D00123C7F8A430D7F8A43000
:10167C0093FAA3F3C7F8A030D7F8A030B3FA83F3EA
:10168C001A460D4B13449B001A4601231360FEF7B8
:10169C00A7FDC7F8900111E0FEF7A2FD0246D7F8AE
:1016AC009031D31A022B09D90323FCE200380240F3
:1016BC00242B000800000020A0C191100223C7F8C1
:1016CC009C30D7F89C3093FAA3F207F198031A6078
:1016DC00A54B5A6B07F194030221196007F194038F
:1016EC001B6893FAA3F107F19003196007F19003BB
:1016FC001B68B3FA83F35BB243F040035BB2DBB21B
:10170C0003F01F03012101FA03F31340002BC3D094
:10171C0052E007F18C0301221A6007F18C031B685D
:10172C0093FAA3F207F188031A6007F188031B6888
:10173C00B3FA83F31A468D4B13449B001A460023CD
:10174C001360FEF74DFDC7F8900109E0FEF748FD68
:10175C000246D7F89031D31A022B01D90323A2E207
:10176C0007F1840302221A6007F184031B6893FAC1
:10177C00A3F207F180031A607B4B5A6B07F17C03D1
:10178C000221196007F17C031B6893FAA3F107F19E
:10179C007803196007F178031B68B3FA83F35BB223
:1017AC0043F040035BB2DBB203F01F03012101FAEB
:1017BC0003F31340002BC9D13B1D1B681B6803F0BE
:1017CC000403002B00F00E81002387F89731664B41
:1017DC005B6A03F08053002B12D1634A624B5B6A45
:1017EC0043F080535362604B5B6A03F0805207F105
:1017FC000C031A6007F10C031B68012387F897315F
:10180C005B4B1B6803F48073002B1AD1584A584B5E
:10181C001B6843F480731360FEF7E2FCC7F8900179
:10182C0009E0FEF7DDFC0246D7F89031D31A642BA1
:10183C0001D9032337E24E4B1B6803F48073002B52
:10184C00EFD03B1D1B689B68012B06D1464A464BCB
:10185C005B6B43F4807353632FE03B1D1B689B68E9
:10186C00002B0CD1404A404B5B6B23F480735363C9
:10187C003D4A3D4B5B6B23F4806353631DE03B1D82
:10188C001B689B68052B0CD1374A374B5B6B43F4B9
:10189C0080635363344A344B5B6B43F48073536300
:1018AC000BE0314A304B5B6B23F4807353632E4A4D
:1018BC002D4B5B6B23F4806353633B1D1B689B6850
:1018CC00002B3FD0FEF78CFCC7F890010BE0FEF725
:1018DC0087FC0246D7F89031D31A41F288329342F2
:1018EC0001D90323DFE107F174034FF400721A608E
:1018FC0007F174031B6893FAA3F207F170031A60E3
:10190C00194B5A6B07F16C034FF40071196007F116
:10191C006C031B6893FAA3F107F16803196007F1D4
:10192C0068031B68B3FA83F35BB243F040035BB20A
:10193C00DBB203F01F03012101FA03F31340002B68
:10194C00C5D045E0FEF74CFCC7F8900112E0FEF75D
:10195C0047FC0246D7F89031D31A41F288329342B1
:10196C0008D903239FE100BF00380240A0C19110A9
:10197C000070004007F164034FF400721A6007F125
:10198C0064031B6893FAA3F207F160031A60B24B6D
:10199C005A6B07F15C034FF40071196007F15C039B
:1019AC001B6893FAA3F107F15803196007F1580368
:1019BC001B68B3FA83F35BB243F040035BB2DBB258
:1019CC0003F01F03012101FA03F31340002BBED1D6
:1019DC0097F89731012B05D19F4A9F4B5B6A23F0F7
:1019EC00805353623B1D1B685B6A002B00F05A81CD
:1019FC00994B9B6803F00C030C2B00F051813B1DA1
:101A0C001B685B6A022B40F0E18007F154034FF036
:101A1C0080721A6007F154031B6893FAA3F207F162
:101A2C0050031A6007F150031B68B3FA83F303F1F8
:101A3C00845303F58E139B001A4600231360FEF7A4
:101A4C00CFFBC7F8900109E0FEF7CAFB0246D7F8B6
:101A5C009031D31A022B01D9032324E107F14C0353
:101A6C004FF000721A6007F14C031B6893FAA3F253
:101A7C0007F148031A6007F148031B68B3FA83F3B4
:101A8C00DBB25B09DBB243F00103DBB2012B02D109
:101A9C00714B1B6801E0704B5B6B07F144024FF01C
:101AAC000071116007F14402126892FAA2F107F179
:101ABC004002116007F140021268B2FA82F252B28F
:101ACC0042F0200252B2D2B202F01F02012101FAFE
:101ADC0002F21340002BB7D15F485F4B9B6823F495
:101AEC007D023B1D1B68996A3B1D1B68DB6A194311
:101AFC003B1D1B681B6B0B431343836007F13C03BB
:101B0C004FF080721A6007F13C031B6893FAA3F242
:101B1C0007F138031A6007F138031B68B3FA83F333
:101B2C0003F1845303F58E139B001A4601231360B3
:101B3C00FEF756FBC7F8900109E0FEF751FB024691
:101B4C00D7F89031D31A022B01D90323ABE007F15C
:101B5C0034034FF000721A6007F134031B6893FAD8
:101B6C00A3F207F130031A6007F130031B68B3FAD4
:101B7C0083F3DBB25B09DBB243F00103DBB2012B75
:101B8C0002D1354B1B6801E0334B5B6B07F12C0228
:101B9C004FF00071116007F12C02126892FAA2F159
:101BAC0007F12802116007F128021268B2FA82F2DA
:101BBC0052B242F0200252B2D2B202F01F02012104
:101BCC0001FA02F21340002BB7D06BE007F12403AB
:101BDC004FF080721A6007F124031B6893FAA3F28A
:101BEC0007F120031A6007F120031B68B3FA83F393
:101BFC0003F1845303F58E139B001A4600231360E4
:101C0C00FEF7EEFAC7F8900109E0FEF7E9FA024692
:101C1C00D7F89031D31A022B01D9032343E007F1F3
:101C2C001C034FF000721A6007F11C031B6893FA37
:101C3C00A3F207F118031A6007F118031B68B3FA33
:101C4C0083F3DBB25B09DBB243F00103DBB2012BA4
:101C5C0004D1014B1B6803E000380240144B5B6B52
:101C6C0007F114024FF00071116007F114021268B1
:101C7C0092FAA2F107F11002116007F1100212683A
:101C8C00B2FA82F252B242F0200252B2D2B202F056
:101C9C001F02012101FA02F21340002BB5D101E021
:101CAC00012300E00023184607F5CC77BD4680BD24
:101CBC000038024080B596B000AF786039600023E0
:101CCC007B65A94B1B6803F001023B689A4219D251
:101CDC003B68012B05D1A44AA34B1B6843F00403BA
:101CEC001360A149A04B1B6823F001023B6813430E
:101CFC000B609D4B1B6803F001023B689A4201D0BC
:101D0C000123A2E17B681B6803F00203002B08D0BF
:101D1C009649964B9B6823F0F0027B689B681343B3
:101D2C008B607B681B6803F00103002B00F0318192
:101D3C007B685B68022B30D14FF400333B653B6D05
:101D4C0093FAA3F3FB64FB6CB3FA83F3DBB25B098A
:101D5C00DBB243F00103DBB2012B02D1834B1B68D6
:101D6C0001E0824B5B6B4FF40032BA64BA6C92FAAE
:101D7C00A2F27A647A6CB2FA82F252B242F0200287
:101D8C0052B2D2B202F01F02012101FA02F2134048
:101D9C00002B40F09880012357E17B685B68032B94
:101DAC002FD14FF000733B643B6C93FAA3F3FB63AE
:101DBC00FB6BB3FA83F3DBB25B09DBB243F00103D9
:101DCC00DBB2012B02D1694B1B6801E0674B5B6BEB
:101DDC004FF00072BA63BA6B92FAA2F27A637A6B22
:101DEC00B2FA82F252B242F0200252B2D2B202F0F5
:101DFC001F02012101FA02F21340002B63D10123CF
:101E0C0023E17B685B68012B2DD102233B633B6B89
:101E1C0093FAA3F3FB62FB6AB3FA83F3DBB25B09BD
:101E2C00DBB243F00103DBB2012B02D14F4B1B6839
:101E3C0001E04E4B5B6B0222BA62BA6A92FAA2F2D2
:101E4C007A627A6AB2FA82F252B242F0200252B24A
:101E5C00D2B202F01F02012101FA02F21340002B50
:101E6C0031D10123F1E04FF400733B623B6A93FAEA
:101E7C00A3F3FB61FB69B3FA83F3DBB25B09DBB25F
:101E8C0043F00103DBB2012B02D1384B1B6801E09C
:101E9C00364B5B6B4FF40072BA61BA6992FAA2F2DC
:101EAC007A617A69B2FA82F252B242F0200252B2EC
:101EBC00D2B202F01F02012101FA02F21340002BF0
:101ECC0001D10123C1E02949284B9B6823F003026F
:101EDC007B685B6813438B60FEF782F978657B68DF
:101EEC005B68022B12D10AE0FEF77AF902467B6D91
:101EFC00D31A41F28832934201D90323A5E01B4B3C
:101F0C009B6803F00C03082BEED142E07B685B6806
:101F1C00032B12D10AE0FEF763F902467B6DD31A4C
:101F2C0041F28832934201D903238EE00F4B9B6818
:101F3C0003F00C030C2BEED12BE07B685B68012BC0
:101F4C0021D10AE0FEF74CF902467B6DD31A41F21F
:101F5C008832934201D9032377E0044B9B6803F04A
:101F6C000C03042BEED114E0003C0240003802407C
:101F7C00FEF736F902467B6DD31A41F28832934252
:101F8C0001D9032361E0334B9B6803F00C03002B56
:101F9C00EED1314B1B6803F001023B689A4219D910
:101FAC003B68012B05D12C4A2B4B1B6843F00403D7
:101FBC0013602949284B1B6823F001023B6813432B
:101FCC000B60254B1B6803F001023B689A4201D061
:101FDC0001233AE07B681B6803F00403002B08D054
:101FEC001C491C4B9B6823F4E0627B68DB68134341
:101FFC008B607B681B6803F00803002B09D0154924
:10200C00144B9B6823F460527B681B69DB00134301
:10201C008B6000F027F801460E4B9B6803F0F00232
:10202C00F0233B613B6993FAA3F3FB60FB68B3FAC3
:10203C0083F322FA03F3094AD35C21FA03F3084A27
:10204C0013600020FEF7A2F8002318465837BD464F
:10205C0080BD00BF00380240003C0240242B000829
:10206C000000002080B48DB000AF00237B62002301
:10207C003B620023FB610023FB620023BB61002356
:10208C00BB62374B9B687B627B6A03F00C03082BAB
:10209C0006D00C2B07D0042B42D1324BBB6258E03C
:1020AC00314BBB6255E07B6A03F470124FF4701332
:1020BC00FB60FB6893FAA3F3BB60BB68B3FA83F3D2
:1020CC0022FA03F3294AD35C3B627B6A03F4400295
:1020DC004FF440037B617B6993FAA3F33B613B694B
:1020EC00B3FA83F322FA03F30133FB611C4B9B68B5
:1020FC0003F48033002B08D03B6A1B4A02FB03F22B
:10210C00FB69B2FBF3F3FB6207E03B6A154A02FB87
:10211C0003F2FB69B2FBF3F3FB62FB6ABB6218E0F0
:10212C000F4B5B6803F460424FF460437B607B6849
:10213C0093FAA3F33B603B68B3FA83F322FA03F3FD
:10214C00BB61BB6901334FF4004202FA03F3BB627B
:10215C0000BFBB6A18463437BD4680BC704700BF11
:10216C00003802400024F40000127A00182B0008FA
:10217C0080B487B000AF786000237B6100233B61A3
:10218C00294B9B6803F0F003002B2CD1264B5B6A88
:10219C0003F08053002B05D0244B1B6803F4C05371
:1021AC007B6116E0204A204B5B6A43F080535362FC
:1021BC001D4B5B6A03F08053FB60FB681B4B1B6879
:1021CC0003F4C0537B61184A174B5B6A23F08053AE
:1021DC0053627B69B3F5C05F05D17B68B3F5404FA3
:1021EC0001D101233B613B69012B05D1104A104BF6
:1021FC001B6843F0040313600D490D4B1B6823F05F
:10220C0001023B6913430B60094B1B6803F001028D
:10221C003B699A4201D0012300E0002318461C3789
:10222C00BD4680BC704700BF0038024000700040C3
:10223C00003C024080B58EB000AF786000233B6359
:10224C000023FB627B681B6803F00103002B06D1A3
:10225C007B681B6803F00203002B00F0FE80002358
:10226C0087F837307F4B5B6A03F08053002B0ED11D
:10227C007C4A7C4B5B6A43F080535362794B5B6ABC
:10228C0003F08053BB60BB68012387F83730764B73
:10229C001B6803F48073002B18D1734A724B1B68B4
:1022AC0043F480731360FDF79BFF386308E0FDF780
:1022BC0097FF02463B6BD31A642B01D90323CDE065
:1022CC00694B1B6803F48073002BF0D0654B1B68C3
:1022DC0003F0C043FB627B685B6803F0C042FB6A9F
:1022EC009A4206D17B689B6803F0C042FB6A9A4213
:1022FC000ED07B685B6803F44033B3F5403F07D1E5
:10230C00584B1B6803F40033002B01D00123A5E0CC
:10231C00544B5B6B03F44033FB62FB6A002B77D0AE
:10232C007B685B6803F44032FB6A9A4205D07B6899
:10233C001B6803F00103002B0CD17B689B6803F432
:10234C004032FB6A9A4263D07B681B6803F002033D
:10235C00002B5DD0434B5B6B23F44033FB624FF49B
:10236C0000033B623B6A93FAA3F3FB61FB69B3FA8C
:10237C0083F31A463D4B13449B001A46012313600A
:10238C004FF40003BB62BB6A93FAA3F37B627B6AD4
:10239C00B3FA83F31A46354B13449B001A460023B9
:1023AC001360304AFB6A5363FB6A03F48073002B9F
:1023BC002ED0FDF715FF38630AE0FDF711FF02463A
:1023CC003B6BD31A41F28832934201D9032345E087
:1023DC004FF40073BB61BB6993FAA3F37B61214B90
:1023EC005A6B4FF400733B613B6993FAA3F3FB60A8
:1023FC00FB68B3FA83F35BB243F040035BB2DBB22E
:10240C0003F01F03012101FA03F31340002BD4D076
:10241C007B685B6803F44033B3F5403F0AD1114944
:10242C00104B1B6823F0C0427B685B6803F0C04311
:10243C0013430B600B490B4B5A6B7B685B6803F4C3
:10244C00403313434B6397F83730012B05D1054AC2
:10245C00044B5B6A23F080535362002318463837D1
:10246C00BD4680BD0038024000700040A0C19110F4
:10247C0080B582B000AFFDF77BFE00F02BF800F0CA
:10248C001FF900F08BF800F0E1F800F013F90122CD
:10249C0040210E48FEF79CFB00237B6002E07B682A
:1024AC0001337B607B680A4A9342F8D900224021B1
:1024BC000648FEF78DFB00237B6002E07B6801334E
:1024CC007B607B68024A9342F8D9E0E70004024043
:1024DC003F420F0080B596B000AF07F124033422C1
:1024EC000021184600F0FEFA07F1100300221A60D2
:1024FC005A609A60DA601A613B1D00221A605A60B9
:10250C009A60254A244B1B6823F4C05343F40063A0
:10251C00136006237B620123FB6201233B631023C0
:10252C007B630223BB640023FB644FF400233B65F5
:10253C004FF400037B6507F124031846FEF740FCBB
:10254C000346002B01D000F02DF90F233B61032330
:10255C007B610023BB610023FB6100233B6207F11D
:10256C00100301211846FFF7A5FB0346002B01D0F1
:10257C0000F018F902237B604FF48033FB603B1DA5
:10258C001846FFF757FE0346002B01D000F00AF95E
:10259C0000BF5837BD4680BD0070004080B584B088
:1025AC0000AF3B1D00221A605A609A60254B264AE8
:1025BC001A60244B00225A60224B00229A60214B55
:1025CC000022DA601F4B00221A611E4B00225A6156
:1025DC001C4B00229A611B4B0022DA61194B002222
:1025EC001A62184B00225A62164B01229A62154B42
:1025FC000022DA62134B4FF000725A63114B4FF00A
:10260C0080529A630F4B0022DA630E48FDF7F2FDFD
:10261C000346002B01D000F0C5F804237B60012396
:10262C00BB600023FB603B1D19460648FDF720FFED
:10263C000346002B01D000F0B5F800BF1037BD46A3
:10264C0080BD00BF600000200024014080B500AFB9
:10265C00164B174A1A60154B00225A60134B002276
:10266C009A60124B0C22DA60104B00221A610F4B4D
:10267C0000225A610D4B00229A610C4B0022DA6148
:10268C000A4B00221A62094B00221A63074B0022E4
:10269C009A62064B0022DA620448FEF7B1FA03464E
:1026AC00002B01D000F07EF800BF80BD240000207C
:1026BC000024004080B400AF00BFBD4680BC704712
:1026CC0080B588B000AF07F10C0300221A605A6085
:1026DC009A60DA601A612E4A2D4BDB6943F00403D1
:1026EC00D3612B4BDB6903F00403BB60BB68284A46
:1026FC00274BDB6943F00103D361254BDB6903F006
:10270C0001037B607B68224A214BDB6943F00203A7
:10271C00D3611F4BDB6903F002033B603B68012272
:10272C004FF400511B48FEF753FA0022C0211A48FF
:10273C00FEF74EFA4FF40053FB6001233B6100237C
:10274C007B610023BB6107F10C0319461148FEF7AE
:10275C00C1F80123FB60114B3B6100237B6107F146
:10276C000C0319460E48FEF7B5F8C023FB60012395
:10277C003B6100237B610023BB6107F10C0319460D
:10278C000548FEF7A7F800BF2037BD4680BD00BF47
:10279C000038024000080240000402400000121001
:1027AC000000024080B400AF00BFBD4680BC704743
:1027BC0080B584B000AF154A144B5B6A43F00043FC
:1027CC005362124B5B6A03F00043FB60FB680F4AD9
:1027DC000E4B1B6A43F0010313620C4B1B6A03F094
:1027EC000103BB60BB68094A084B5B6A43F080532A
:1027FC005362064B5B6A03F080537B607B68072057
:10280C00FEF734F800BF1037BD4680BD00380240DB
:10281C0080B58AB000AF786007F1140300221A600B
:10282C005A609A60DA601A617B681B68154A934299
:10283C0023D1154A144B1B6A43F400731362124BD9
:10284C001B6A03F400733B613B690F4A0E4BDB6957
:10285C0043F00103D3610C4BDB6903F00103FB6014
:10286C00FB6810237B610323BB610023FB6107F131
:10287C00140319460548FEF72DF800BF2837BD464E
:10288C0080BD00BF0024014000380240000002401F
:10289C0080B58CB000AF786007F11C0300221A6081
:1028AC005A609A60DA601A617B681B68344A9342FA
:1028BC0062D1344A334B5B6A43F400735362314B3D
:1028CC005B6A03F40073BB61BB692E4A2D4BDB6959
:1028DC0043F00403D3612B4BDB6903F004037B61EE
:1028EC007B69284A274BDB6943F00103D361254BF5
:1028FC00DB6903F001033B613B69224A214BDB6935
:10290C0043F00203D3611F4BDB6903F00203FB604E
:10291C00FB6840F6CF73FB6102233B6200237B62B2
:10292C000023BB620B23FB6207F11C0319461648FC
:10293C00FDF7D0FF48F20E73FB6102233B620023CC
:10294C007B620023BB620B23FB6207F11C0319465D
:10295C000E48FDF7BFFF4FF63873FB6102233B6255
:10296C0000237B620023BB620B23FB6207F11C0379
:10297C0019460748FDF7AEFF00BF3037BD4680BD96
:10298C0000240040003802400008024000000240D1
:10299C000004024080B400AF00BFBD4680BC70474D
:1029AC0080B400AFFEE780B400AFFEE780B400AFA8
:1029BC00FEE780B400AFFEE780B400AF00BFBD46B9
:1029CC0080BC704780B400AF00BFBD4680BC704770
:1029DC0080B400AF00BFBD4680BC704780B500AF6F
:1029EC00FDF7F0FB00BF80BD80B400AF154A154B5E
:1029FC001B6843F4807313601249124B9A68124B94
:102A0C0013408B600F4A0F4B1B6823F0885323F045
:102A1C00011313600B4A0B4B1B6823F480231360C8
:102A2C00084A084B9B6823F47D039360054B0022F6
:102A3C00DA60064B4FF000629A6000BFBD4680BC66
:102A4C00704700BF003802400CC0FF8800ED00E06A
:102A5C00002103E00B4B5B58435004310A480B4BED
:102A6C0042189A42F6D30A4A02E0002342F8043B89
:102A7C00084B9A42F9D3FFF7B7FF00F00FF8FFF7B6
:102A8C00F7FC70473C2B00080000002004000020DD
:102A9C0004000020B4000020FEE7000070B5002503
:102AAC000C4E0D4CA41BA410A54209D100F022F829
:102ABC0000250A4E0A4CA41BA410A54205D170BDDA
:102ACC0056F8253098470135EEE756F825309847EB
:102ADC000135F2E7342B0008342B0008342B0008A6
:102AEC00382B000803460244934200D1704703F888
:102AFC00011BF9E7F8B500BFF8BC08BC9E4670474F
:0C2B0C00F8B500BFF8BC08BC9E4670473E
:102B1800030406080C101820300000000000000014
:0C2B280000000000010203040607080979
:042B34006101000833
:042B38003D01000853
:042B3C0068FF1F000F
:0400000508002A5D68
:00000001FF
