:020000040800F2
:100000000080002045190008BD180008BF1800082E
:10001000C1180008C3180008C51800080000000037
:10002000000000000000000000000000C7180008E9
:10003000C918000800000000CB180008CD180008FF
:100040008D1900088D1900088D1900088D190008F8
:100050008D1900088D1900088D1900088D190008E8
:100060008D1900088D1900088D1900088D190008D8
:100070008D1900088D1900088D1900088D190008C8
:100080008D1900088D1900088D1900088D190008B8
:100090008D1900088D1900088D1900088D190008A8
:1000A0008D1900088D1900088D1900088D19000898
:1000B0008D1900088D1900088D1900088D19000888
:1000C0008D1900088D1900088D1900088D19000878
:1000D0008D1900088D1900088D1900088D19000868
:1000E0008D1900088D1900088D190008D118000815
:1000F0008D190008000000008D1900088D190008F6
:1001000000000000000000008D1900088D19000893
:100110008D1900088D1900088D19000800000000D5
:100120008D19000800000000000000000000000021
:0C01300000000000000000005FF808F173
:10013C0010B5054C237833B9044B13B10448AFF315
:10014C0000800123237010BD04000020000000007B
:10015C00E819000808B5034B1BB103490348AFF37A
:10016C00008008BD0000000008000020E81900080D
:10017C00084B10B5044618684FF47A73B0FBF3F0D3
:10018C0000F0E0F9002221464FF0FF3000F09AF920
:10019C00002010BD0000002008B5032000F080F9FD
:1001AC000020FFF7E5FF01F0B1FA002008BD0000C8
:1001BC00024A136801331360704700BF200000200F
:1001CC00014B1868704700BF20000020F7B50446AB
:1001DC0008B9012092E0C36C73B9036580F848300C
:1001EC00544B1A6A42F001021A621B6A03F00103B3
:1001FC000193019B01F0B0FAE36CDB06E9D4E36CEC
:10020C004D4A23F4885323F0020343F00203E364C2
:10021C005368616823F440330B4353604FF4007010
:10022C0090FAA0F00223B0FA80F0616A93FAA3F37B
:10023C00B3FA83F36569E26801FA03F32A43256A8A
:10024C002A43E56B05FA00F002431343626B256900
:10025C00102A1CBFA06B0243206818BF134302680E
:10026C0012F0400223D1A669E7693343A668B5F5BD
:10027C00807F46EA070643D0012D08BF4FF48072F9
:10028C003243E66A012E0DD100293BD14FF4604177
:10029C0091FAA1F1B1FA81F6216B42F400620139B5
:1002AC00B1400A434668254931400A43426081689F
:1002BC00234AB5F5807F02EA010242EA030282601A
:1002CC0001D0012D27D1056B4FF0F87292FAA2F2F2
:1002DC00B2FA82F1A26A013A8A4025F0F8710A4317
:1002EC0002638168174A0A40934218D100202065A6
:1002FC00E36C23F0030343F00103E36403B0F0BDAC
:10030C002A46BDE7E16C41F02001E164216D41F02A
:10031C0001012165C6E7026B22F0F872E0E7E36C9D
:10032C0023F0120343F01003E364236D43F0010345
:10033C0023654EE70038024000270140FF16FCFC05
:10034C0089F1FFC0FEFF80BF002373B5019390F8C5
:10035C004830012B00F09C8001234D6880F8483018
:10036C00062D04684FEA85030A6821D82B441F2503
:10037C00266C053B9D4026EA050502FA03F32B4348
:10038C002364092A4AD80725636902EB4206896867
:10039C00B54023EA0503B1400B436361A2F110039E
:1003AC00012B5DD9002380F84830184602B070BD8F
:1003BC000C2D0BD82B441F25E66B233B9D4026EAC6
:1003CC00050502FA03F32B43E363DAE7122D0BD88E
:1003DC002B441F25A66B413B9D4026EA050502FADE
:1003EC0003F32B43A363CCE7182D0BD82B441F2509
:1003FC00666B5F3B9D4026EA050502FA03F32B432F
:10040C006363BEE72B441F25266B7D3B9D4026EA8C
:10041C00050502FA03F32B432363B2E7132A0DD825
:10042C00072602EB420523691E3D8968AE4023EA8C
:10043C00060301FA05F52B432361AFE71A2A0DD801
:10044C00072602EB4205E3683C3D8968AE4023EA8F
:10045C00060301FA05F52B43E3609FE700BF9DE718
:10046C000C4B596809029DD45968102A41F40001BB
:10047C00596097D1084B094A1B68B3FBF2F20A2367
:10048C0053430193019B002B8CD0019B013BF8E75C
:10049C0002208BE7002701400000002040420F00A3
:1004AC00074A0002D36800F4E06023F4E0631B0405
:1004BC001B0C43F0BF6343F400330343D36070471A
:1004CC0000ED00E0174B30B5DC68C4F30224C4F136
:1004DC000703251D042B28BF0423062D4FF001050F
:1004EC0098BF002405FA03F303F1FF3388BF033CE4
:1004FC001940A14005FA04F4013C2240002842EACC
:10050C0001024FEA0212AFBF00F16040064B00F04F
:10051C000F00D2B2A5BFD2B200F561401A5480F8D8
:10052C00002330BD00ED00E014ED00E00123420992
:10053C0000F01F0003FA00F0014B43F82200704753
:10054C0000E100E00138B0F1807F0AD2F021064BC7
:10055C00064A586082F823100020072298601A601F
:10056C0070470120704700BF10E000E000ED00E094
:10057C0000232DE9F04F624AD1F80080DFF8889112
:10058C0085B038FA03F402D105B0BDE8F08F012430
:10059C009C4018EA0406019400F0A7804C6824F0F3
:1005AC00100ABAF1020F16D14FF00F0E4FEAD30C0E
:1005BC0000EB8C0C03F0070BDCF820504FEA8B0B94
:1005CC000EFA0BFE25EA0E0E0D6905FA0BF545EA3F
:1005DC000E05CCF8205003254FEA430C05FA0CF518
:1005EC00ED43D0F800B004F0030E0BEA050B0EFA45
:1005FC000CFE0AF1FF3A4EEA0B0EBAF1010FC0F8ED
:10060C0000E016D8D0F808E0CF6805EA0E0E07FA1D
:10061C000CFA4AEA0E0EC0F808E0D0F804E0019F8C
:10062C002EEA0707C4F3001E0EFA03FE4EEA070774
:10063C004760C7683D408F6807FA0CF73D43C560BB
:10064C00E50052D54FF00F0ED9F8205023F00307D8
:10065C0045F00105C9F82050D9F8205007F1804722
:10066C0005F00105039507F5803703F0030C039D96
:10067C004FEA8C0CBD680EFA0CFE25EA0E0E214DCD
:10068C00A84234D005F58065A84232D005F58065C6
:10069C00A84230D005F58065A8422ED005F58065BE
:1006AC00A84214BF0525042505FA0CF545EA0E05EC
:1006BC00BD60F743156814F4803F0CBF3D403543D3
:1006CC001560556814F4003F0CBF3D403543556030
:1006DC00956814F4801F0CBF3D4035439560D56878
:1006EC00A40254BF3D403543D560013349E7002592
:1006FC00DAE70125D8E70225D6E70325D4E700BFC2
:10070C000004014000000240003802400369194215
:10071C0014BF0120002070470AB1816170470904A1
:10072C00FBE738B50446FFF74BFD054623689B688D
:10073C009B0601D5002038BDFFF742FD401BB0F5EC
:10074C007A7FF3D901230320A36338BD38B504465F
:10075C0000286BD090F8353003F0FF021BB980F8FD
:10076C00342001F027F80223226884F8353013680E
:10077C0023F00103136000231846191D013302EB0B
:10078C008101102B4860F8D19368A16843F00403F1
:10079C009360636850680B43A16A0B43E16A0B4397
:1007AC00E1690B43216A0B43A1690B43616A0B435B
:1007BC001F4901400B4353602046FFF7B2FF2069ED
:1007CC00E36822680343606911680343206B21F0DE
:1007DC00FE0103430B431360136843F001031360E2
:1007EC00FFF7EEFC054623689B68DA070CD5FFF78C
:1007FC00E7FC054623689B68DB060FD50020012328
:10080C00A06384F8353038BDFFF7DAFC401BB0F537
:10081C007A7FE8D90823A363032038BDFFF7D0FC07
:10082C00401BB0F57A7FE5D91023F4E7012038BDE1
:10083C000F0000FC1C4B82B09A6812F0F00F0CD029
:10084C0000221A490B6823F0010313430B6008685C
:10085C0000F00100504002B070475A6A144912F07F
:10086C00805F0FD00A6802F4C052B2F5C05FE7D1C6
:10087C00B0F5404FE4D10D4A136843F00403136004
:10088C000122DEE75A6A42F080525A625A6A02F03A
:10089C0080520192019A0A68596A02F4C05221F0FE
:1008AC0080515962E1E700BF00380240003C024031
:1008BC000070004003682DE9F743D90704466AD459
:1008CC0023689A0700F1E6802368DE0655D5C14DF2
:1008DC00AB6813F00C0F40F083814FF4007393FA64
:1008EC00A3F2296893FAA3F3B3FA83F3012203F07A
:1008FC001F0302FA03F30B4202D0A369002B6ED044
:10090C00B44D206A6B6803F46043984240F24A810C
:10091C00FFF790FF002862D16B68226A23F46043D2
:10092C0013436B6069684FF07F4393FAA3F3B3FAF8
:10093C0083F2E369934021F07F4213436B604FF4E1
:10094C00604393FAA3F3B3FA83F0A24BF0219A68B5
:10095C0091FAA1F1B1FA81F1236A02F0F002C340DD
:10096C00581C4FF40043CA409B4983408A5C0020CA
:10097C00D3409A4A1360FFF7FBFB23681D0700F175
:10098C0091812368580700F1D381626A002A40F0F4
:10099C005782002024E08F4B9A6802F00C02082A40
:1009AC0007D09A6802F00C020C2A1CD19B68DB035E
:1009BC0019D54FF4003393FAA3F2864A116893FACF
:1009CC00A3F3B3FA83F3012203F01F0302FA03F338
:1009DC000B423FF475AF6368002B7FF471AF0120BD
:1009EC0003B0BDE8F08363687A4D012B20D12B68EE
:1009FC0043F480332B60FFF7E3FB4FF40035804664
:100A0C000126744F95FAA5F33A6895FAA5F3B3FA53
:100A1C0083F303F01F0306FA03F313427FF450AF82
:100A2C00FFF7CEFBA0EB08006428EBD90320D7E737
:100A3C0013BB2B684FF4003623F480332B602B68E8
:100A4C00012723F480232B60FFF7BAFB804696FA2C
:100A5C00A6F32A6896FAA6F3B3FA83F303F01F03FE
:100A6C0007FA03F313423FF42BAFFFF7A9FBA0EBFC
:100A7C0008006428EBD9D9E7052B2B6803D143F484
:100A8C0080232B60B3E723F480332B602B6823F493
:100A9C008023AFE74F4B9A6802F00C02042A07D070
:100AAC009A6802F00C020C2A24D19B68DF0321D433
:100ABC00022393FAA3F2474A106893FAA3F3B3FA0A
:100ACC0083F3012103F01F0301FA03F303421346DE
:100ADC0002D0E2688A4282D158684FF4F85292FAF6
:100AEC00A2F2B2FA82F122698A4020F4F8510A4348
:100AFC005A60E9E6E268012582B395FAA5F3B3FAE8
:100B0C0083F303F1845303F58E139B001D60FFF7F1
:100B1C0057FB022780462F4E97FAA7F3326897FAB5
:100B2C00A7F3B3FA83F303F01F0305FA03F313429D
:100B3C000DD071684FF4F85393FAA3F3B3FA83F220
:100B4C002369934021F4F85213437360BCE6FFF71A
:100B5C0037FBA0EB08000228DED967E795FAA5F36E
:100B6C00B3FA83F303F1845303F58E139B001A60DD
:100B7C00FFF726FB02268046164F96FAA6F33A6834
:100B8C0096FAA6F3B3FA83F303F01F0305FA03F303
:100B9C0013423FF499AEFFF713FBA0EB08000228B9
:100BAC00EBD943E76B6823F4604303436B606968DC
:100BBC004FF07F4393FAA3F3B3FA83F2E3699340C4
:100BCC0021F07F4213436B60FFF734FE00283FF4A3
:100BDC00B6AE04E700380240001A000800000020FE
:100BEC00A2694FF48073002A37D093FAA3F3B3FAB7
:100BFC0083F3012603F1845303F58E139B001E60CF
:100C0C00FFF7DEFA4FF40077804697FAA7F32A68CD
:100C1C0097FAA7F3B3FA83F303F01F0306FA03F36F
:100C2C00134213D06B68226A23F4604313436B6046
:100C3C0069684FF07F4393FAA3F3B3FA83F2E36945
:100C4C00934021F07F4213436B6096E6FFF7B8FAAE
:100C5C00A0EB08000228D8D9E8E693FAA3F3B3FA7C
:100C6C0083F303F1845303F58E139B001A60FFF793
:100C7C00A7FA4FF400768046012796FAA6F32A6865
:100C8C0096FAA6F3B3FA83F303F01F0307FA03F300
:100C9C0013423FF472AEFFF793FAA0EB0800022860
:100CAC00EBD9C3E662690125A94902B395FAA5F30C
:100CBC00B3FA83F30B449B001D60FFF781FA022605
:100CCC008046A44F96FAA6F37A6B96FAA6F3B3FA7B
:100CDC0083F303F01F0305FA03F313427FF451AEC1
:100CEC00FFF76EFAA0EB08000228EBD99EE695FA06
:100CFC00A5F3B3FA83F30B449B001A60FFF760FA79
:100D0C0002268046934F96FAA6F37A6B96FAA6F3D0
:100D1C00B3FA83F303F01F0305FA03F313423FF412
:100D2C0030AEFFF74DFAA0EB08000228EBD97DE6B8
:100D3C00884B5A6AD10034D401265A6A42F0805248
:100D4C005A625B6A03F080530193019B824D2B68BE
:100D5C00DA0528D5A3687F4D012B34D16B6B43F496
:100D6C0080736B63FFF72CFA4FF4007581460127F3
:100D7C00DFF8E08195FAA5F3D8F8342095FAA5F3BD
:100D8C00B3FA83F303F01F0307FA03F313424ED0B5
:100D9C00002E3FF4FAAD6F4A536A23F0805353622E
:100DAC00F3E50026D2E72B6843F480732B60FFF742
:100DBC0007FA07462B68DB05CCD4FFF701FAC01BFA
:100DCC006428F7D932E623BB6B6B4FF4007723F41E
:100DDC0080736B636B6B4FF0010823F480636B6360
:100DEC00FFF7EEF9814697FAA7F36A6B97FAA7F328
:100DFC00B3FA83F303F01F0308FA03F31342C7D0CB
:100E0C00FFF7DEF941F28833A0EB09009842EAD9EA
:100E1C000CE6052B6B6B03D143F480636B639DE78E
:100E2C0023F480736B636B6B23F4806399E7FFF798
:100E3C00C7F941F28833A0EB090098429AD9F5E53D
:100E4C00444DAB6803F00C030C2B3FF4C8AD022AE5
:100E5C004FF0807356D193FAA3F3B3FA83F30022C5
:100E6C0003F1845303F58E139B001A60FFF7A8F966
:100E7C002E4680464FF00077012597FAA7F332688B
:100E8C0097FAA7F3B3FA83F303F01F0305FA03F3FE
:100E9C00134230D1B268A36AE16A22F47D020B439B
:100EAC001343226B1343B3604FF0807393FAA3F395
:100EBC00B3FA83F303F1845303F58E139B001D6087
:100ECC00FFF77EF94FF0007407460125214E94FA86
:100EDC00A4F3326894FAA4F3B3FA83F303F01F0378
:100EEC0005FA03F313427FF454ADFFF769F9C01B05
:100EFC000228ECD99AE5FFF763F9A0EB0800022869
:100F0C00BBD993E593FAA3F3B3FA83F3002203F16D
:100F1C00845303F58E139B001A60FFF751F94FF0C1
:100F2C0000740746012694FAA4F32A6894FAA4F3F1
:100F3C00B3FA83F303F01F0306FA03F313423FF4EF
:100F4C0028ADFFF73DF9C01B0228ECD96EE500BFB8
:100F5C00A0C1911000380240007000401E4910B52D
:100F6C008B6803F00C02082A05D00C2A05D0042A41
:100F7C0022D11A4810BD1A4810BD4FF4701292FAC3
:100F8C00A2F2B2FA82F203F4701020FA02F21548BF
:100F9C00845C4FF4400090FAA0F0B0FA80F203F4B5
:100FAC0040008B68D040DB034CBF0D4B0B4B01302A
:100FBC006343B3FBF0F010BD48684FF4604393FA01
:100FCC00A3F3B3FA83F300F46040D840431C4FF40E
:100FDC000040984010BD00BF003802400024F400CF
:100FEC0000127A00101A00086A4B2DE9F0411A68B9
:100FFC00064602F001028A420D4630D3326894074D
:10100C0040D4D00746D4634B1A6802F001029542D3
:10101C00C0F0AE803268510700F1B380130707D5DA
:10102C005D4A3169936823F4605343EAC1039360CA
:10103C00FFF794FF584BF0229B6892FAA2F2B2FA97
:10104C0082F203F0F003D340544AD35CD840544BA3
:10105C0018600020FFF78CF80020BDE8F081012912
:10106C0002BF1A6842F004021A601A6822F00102E8
:10107C000A431A601B6803F001039942BED0012099
:10108C00BDE8F0814449B0688B6823F0F00303435A
:10109C008B60B6E772684049022A0FD14FF40033D7
:1010AC0093FAA3F0086893FAA3F3B3FA83F301213C
:1010BC0003F01F0301FA03F3034213E0032A02D1E6
:1010CC004FF00073ECE7012A29D1022393FAA3F025
:1010DC00096893FAA3F3B3FA83F303F01F0302FA3C
:1010EC0003F30B42CBD02C4C41F28838A36823F08D
:1010FC0003031A43A260FFF763F873680746022BD9
:10110C0010D1A36803F00C03082B3FF47CAFFFF75E
:10111C0057F8C01B4045F4D90320BDE8F0814FF4CB
:10112C000073BDE7032B0BD1A36803F00C030C2B4E
:10113C003FF469AFFFF744F8C01B4045F4D9EBE727
:10114C00012B10D1A36803F00C03042B3FF45BAF0D
:10115C00FFF736F8C01B4045F4D9DDE7FFF730F850
:10116C00C01B4045D8D8A36813F00C0FF6D14AE742
:10117C001A6822F001021A601B68DA073FF57FAF8C
:10118C0048E70549F0688B6823F4E06303438B6000
:10119C0044E700BF003C024000380240001A00083F
:1011AC000000002003682DE9F7430446980701D19D
:1011BC00002055E04F4B5A6AD1003FD401255A6AA2
:1011CC0042F080525A625B6A03F080530193019B98
:1011DC00494E3368DA0533D5464B6268196802F01C
:1011EC00C04001F0C041814204D1A06800F0C04071
:1011FC00814207D002F44031B1F5403F02D1196869
:10120C00880375D45B6B13F440332CD16068394B75
:10121C0000F44031B1F5403F06D11A6800F0C040EF
:10122C0022F0C04202431A605A6B11435963002DDD
:10123C00BED05A6A22F080525A62B9E70025C7E73D
:10124C00336843F480733360FEF7BAFF07463368A4
:10125C00DB05C1D4FEF7B4FFC01B6428F7D903200B
:10126C0003B0BDE8F08302F44032934202D022680E
:10127C00D10707D4A26802F440329342C6D0236847
:10128C009A07C3D51B4E4FF40003716B21F4403009
:10129C0093FAA3F2B2FA82F20127DFF860E072440B
:1012AC009200176093FAA3F3B3FA83F3002273440A
:1012BC009B001A60CB057063A8D5FEF781FF4FF435
:1012CC000078814698FAA8F3726B98FAA8F3B3FAEF
:1012DC0083F303F01F0307FA03F3134296D1FEF7CF
:1012EC006FFF41F28833A0EB09009842EAD9B6E7C8
:1012FC000120B5E70038024000700040A0C19110F9
:10130C00B0F1804F03680ED01C4A90420BD002F50E
:10131C008062904207D002F58062904203D002F5C1
:10132C007C42904216D14A6823F07003B0F1804F92
:10133C0043EA020315D0114A904212D002F58062A2
:10134C0090420ED002F5806290420AD002F57C42A7
:10135C00904206D00A4A904203D002F58062904235
:10136C0003D1CA6823F44073134303608B68C362D0
:10137C000B68836201234361704700BF0004004087
:10138C00000C014010B50446A0B190F8353003F0C4
:10139C00FF021BB980F8342000F06CFA022320689D
:1013AC0084F83530211DFFF7ABFF0123002084F8B2
:1013BC00353010BD012010BD03680020DA6842F002
:1013CC000102DA601A6842F001021A607047704735
:1013DC007047704770477047036810B51A69044628
:1013EC0091070ED5DA6892070BD56FF002021A61DD
:1013FC0001229B69027599075CD0FFF7EAFF002375
:10140C00237523681A69520710D5DA6850070DD571
:10141C006FF004021A6102229B69227513F4407F5B
:10142C0020464DD0FFF7D5FF0023237523681A699A
:10143C0011070FD5DA6812070CD56FF008021A6184
:10144C000422DB6922759B0720463FD0FFF7C1FFC2
:10145C000023237523681A69D00610D5DA68D106E3
:10146C000DD56FF010021A610822DB69227513F496
:10147C00407F204630D0FFF7ACFF00232375236854
:10148C001A69D20708D5DA68D00705D56FF00102C2
:10149C0020461A61FFF79BFF23681A69510608D58D
:1014AC00DA68520605D56FF0400220461A61FFF744
:1014BC0092FF10BDFFF78CFF2046FFF78BFF9EE7D6
:1014CC00FFF786FF2046FFF785FFADE7FFF780FFAC
:1014DC002046FFF77FFFBBE7FFF77AFF2046FFF7B9
:1014EC0079FFCAE790F8343010B5012B4FF00203A6
:1014FC0018D080F8353003680C685A68496822F0B7
:10150C0070025A605A6822435A609A6822F080022C
:10151C009A609A680A439A60012380F83530002358
:10152C0080F83430184610BD70B5002496B03422C3
:10153C00002109A800F04AFA0021142204A800F0A6
:10154C0045FA184A0194029403941368012523F474
:10155C00C05343F4006313600623099310230D93C7
:10156C004FF40023022614934FF4000309A815939B
:10157C000B950C9512961394FFF79CF90F2304937B
:10158C000323294604A80593069407940894FFF7AF
:10159C002BFD4FF4803301A801960393FFF702FE55
:1015AC0016B070BD0070004000B589B0FEF7F4FDB8
:1015BC00FFF7BAFF1422002103A800F007FA484BEA
:1015CC004FF40051DA69474842F00402DA61DA69F3
:1015DC00002402F004020092009ADA69012642F01B
:1015EC000102DA61DA69404D02F001020192019ABE
:1015FC00DA6942F00202DA61DB69012203F00203CC
:10160C000293029BFFF788F80022C0213748FFF7AE
:10161C0083F84FF4005303A93248039304960594BE
:10162C000694FEF7A5FF324B03A9324804930396A8
:10163C000594FEF79DFFC02303A92C480393049641
:10164C0005940694FEF794FF2B4B284685E818006A
:10165C004FF000736B634FF08053AC60AB63EC6086
:10166C002C616C61AC61EC612C626C62AE62EC6200
:10167C00EC63039404940594FEF7A8FD042303A9DA
:10168C002846039304960594FEF75EFE1B481C4BFC
:10169C00846080E818000C230461C3604461846199
:1016AC00C461046204638462C462FFF74FF847F6B6
:1016BC00FF43144D144A284685E80C004FF47A7306
:1016CC000394EB600494AC60FFF75CFE03A928461E
:1016DC0003940494FFF706FF2846FFF76DFEFEE720
:1016EC00003802400008024098000020000402402C
:1016FC000000121000000240002401405C00002099
:10170C000024004024000020001000401FB5114BA5
:10171C0007205A6A42F000425A625A6A02F00042AA
:10172C000192019A1A6A42F001021A621A6A02F0D4
:10173C0001020292029A5A6A42F080525A625B6A21
:10174C0003F080530393039BFEF7AAFE05B05DF8EC
:10175C0004FB00BF0038024010B5044688B01422C8
:10176C00002103A800F032F92268104B9A421BD1D9
:10177C0003F58A331A6A03A942F400721A621A6AD0
:10178C000B4802F400720192019ADA6942F00102EC
:10179C00DA61DB6903F001030293029B10230393CC
:1017AC0003230493FEF7E4FE08B010BD00240140AF
:1017BC0000000240142270B504468AB00DEB020002
:1017CC00002100F003F92268264B9A4247D103F519
:1017DC0005335A6A022642F400725A625A6A0B2581
:1017EC0002F400720192019ADA6905A942F004022E
:1017FC00DA61DA691C4802F004020292029ADA6990
:10180C00002442F00102DA61DA6902F0010203926B
:10181C00039ADA6942F00202DA61DB69069603F098
:10182C0002030493049B40F6CF7309950593FEF7CE
:10183C009FFE48F20E7305A90C4805930696079473
:10184C0008940995FEF794FE4FF6387305A90848DD
:10185C0005930696079408940995FEF789FE0AB03D
:10186C0070BD00BF00240040000802400000024090
:10187C000004024007B50D4B02689A4212D103F5E1
:10188C000A335A6A2B2042F010025A6200225B6A19
:10189C00114603F010030193019BFEF713FE2B205E
:1018AC00FEF744FE03B05DF804FB00BF00100040DF
:1018BC007047FEE7FEE7FEE7FEE7704770477047AC
:1018CC00FEF776BC10B5084C80212046FEF71EFFB3
:1018DC00B0FA80F2802120465209FEF71DFFBDE8C8
:1018EC0010400248FFF778BD00040240240000209D
:1018FC000E4B1A6842F480721A6099680C4A0A40BE
:10190C009A601A6822F0885222F001121A601A6842
:10191C0022F480221A609A6822F47D029A600022D6
:10192C00DA604FF00062034B9A6070470038024057
:10193C000CC0FF8800ED00E0002103E00B4B5B586E
:10194C00435004310A480B4B42189A42F6D30A4AC8
:10195C0002E0002342F8043B084B9A42F9D3FFF70C
:10196C00C7FF00F00FF8FFF71FFE7047241A00089E
:10197C00000000200400002004000020EC000020E7
:10198C00FEE7000070B500250C4E0D4CA41BA410F6
:10199C00A54209D100F022F800250A4E0A4CA41BDE
:1019AC00A410A54205D170BD56F8253098470135D5
:1019BC00EEE756F8253098470135F2E71C1A000877
:1019CC001C1A00081C1A0008201A000803460244BE
:1019DC00934200D1704703F8011BF9E7F8B500BF3B
:1019EC00F8BC08BC9E467047F8B500BFF8BC08BCF4
:0419FC009E4670474C
:101A000000000000000000000102030406070809AE
:0C1A1000030406080C1018203000000031
:041A1C00610100085C
:041A20003D0100087C
:041A240068FF1F0038
:040000050800194591
:00000001FF
