:020000040800F2
:100000000080002005170008891600088B160008DC
:100010008D1600088F1600089116000800000000D9
:10002000000000000000000000000000931600081F
:1000300095160008000000009716000899160008A1
:100040004D1700084D1700084D1700084D17000800
:100050004D1700084D1700089D1600084D170008A1
:100060004D1700084D1700084D1700084D170008E0
:100070004D1700084D1700084D1700084D170008D0
:100080004D1700084D1700084D1700084D170008C0
:100090004D1700084D1700084D1700084D170008B0
:1000A0004D1700084D1700084D1700084D170008A0
:1000B0004D1700084D1700084D1700084D17000890
:1000C0004D1700084D1700084D1700084D17000880
:1000D0004D1700084D1700084D1700084D17000870
:1000E0004D1700084D1700084D1700084D17000860
:1000F0004D170008000000004D1700084D170008BC
:1001000000000000000000004D1700084D17000817
:100110004D1700084D1700084D170008000000009B
:100120004D17000800000000000000000000000063
:0C01300000000000000000005FF808F173
:10013C0010B5054C237833B9044B13B10448AFF315
:10014C0000800123237010BD04000020000000007B
:10015C00A817000808B5034B1BB103490348AFF3BC
:10016C00008008BD0000000008000020A81700084F
:10017C00084B10B5044618684FF47A73B0FBF3F0D3
:10018C0000F0E0F9002221464FF0FF3000F09AF920
:10019C00002010BD0000002008B5032000F080F9FD
:1001AC000020FFF7E5FF01F0B5F9002008BD0000C5
:1001BC00024A136801331360704700BF240000200B
:1001CC00014B1868704700BF24000020F7B50446A7
:1001DC0008B9012092E0C36C73B9036580F848300C
:1001EC00544B1A6A42F001021A621B6A03F00103B3
:1001FC000193019B01F0B4F9E36CDB06E9D4E36CE9
:10020C004D4A23F4885323F0020343F00203E364C2
:10021C005368616823F440330B4353604FF4007010
:10022C0090FAA0F00223B0FA80F0616A93FAA3F37B
:10023C00B3FA83F36569E26801FA03F32A43256A8A
:10024C002A43E56B05FA00F002431343626B256900
:10025C00102A1CBFA06B0243206818BF134302680E
:10026C0012F0400223D1A669E7693343A668B5F5BD
:10027C00807F46EA070643D0012D08BF4FF48072F9
:10028C003243E66A012E0DD100293BD14FF4604177
:10029C0091FAA1F1B1FA81F6216B42F400620139B5
:1002AC00B1400A434668254931400A43426081689F
:1002BC00234AB5F5807F02EA010242EA030282601A
:1002CC0001D0012D27D1056B4FF0F87292FAA2F2F2
:1002DC00B2FA82F1A26A013A8A4025F0F8710A4317
:1002EC0002638168174A0A40934218D100202065A6
:1002FC00E36C23F0030343F00103E36403B0F0BDAC
:10030C002A46BDE7E16C41F02001E164216D41F02A
:10031C0001012165C6E7026B22F0F872E0E7E36C9D
:10032C0023F0120343F01003E364236D43F0010345
:10033C0023654EE70038024000270140FF16FCFC05
:10034C0089F1FFC0FEFF80BF002373B5019390F8C5
:10035C004830012B00F09C8001234D6880F8483018
:10036C00062D04684FEA85030A6821D82B441F2503
:10037C00266C053B9D4026EA050502FA03F32B4348
:10038C002364092A4AD80725636902EB4206896867
:10039C00B54023EA0503B1400B436361A2F110039E
:1003AC00012B5DD9002380F84830184602B070BD8F
:1003BC000C2D0BD82B441F25E66B233B9D4026EAC6
:1003CC00050502FA03F32B43E363DAE7122D0BD88E
:1003DC002B441F25A66B413B9D4026EA050502FADE
:1003EC0003F32B43A363CCE7182D0BD82B441F2509
:1003FC00666B5F3B9D4026EA050502FA03F32B432F
:10040C006363BEE72B441F25266B7D3B9D4026EA8C
:10041C00050502FA03F32B432363B2E7132A0DD825
:10042C00072602EB420523691E3D8968AE4023EA8C
:10043C00060301FA05F52B432361AFE71A2A0DD801
:10044C00072602EB4205E3683C3D8968AE4023EA8F
:10045C00060301FA05F52B43E3609FE700BF9DE718
:10046C000C4B596809029DD45968102A41F40001BB
:10047C00596097D1084B094A1B68B3FBF2F20A2367
:10048C0053430193019B002B8CD0019B013BF8E75C
:10049C0002208BE7002701400000002040420F00A3
:1004AC00074A0002D36800F4E06023F4E0631B0405
:1004BC001B0C43F0BF6343F400330343D36070471A
:1004CC0000ED00E0174B30B5DC68C4F30224C4F136
:1004DC000703251D042B28BF0423062D4FF001050F
:1004EC0098BF002405FA03F303F1FF3388BF033CE4
:1004FC001940A14005FA04F4013C2240002842EACC
:10050C0001024FEA0212AFBF00F16040064B00F04F
:10051C000F00D2B2A5BFD2B200F561401A5480F8D8
:10052C00002330BD00ED00E014ED00E00123420992
:10053C0000F01F0003FA00F0014B43F82200704753
:10054C0000E100E00138B0F1807F0AD2F021064BC7
:10055C00064A586082F823100020072298601A601F
:10056C0070470120704700BF10E000E000ED00E094
:10057C0000232DE9F04F624AD1F80080DFF8889112
:10058C0085B038FA03F402D105B0BDE8F08F012430
:10059C009C4018EA0406019400F0A7804C6824F0F3
:1005AC00100ABAF1020F16D14FF00F0E4FEAD30C0E
:1005BC0000EB8C0C03F0070BDCF820504FEA8B0B94
:1005CC000EFA0BFE25EA0E0E0D6905FA0BF545EA3F
:1005DC000E05CCF8205003254FEA430C05FA0CF518
:1005EC00ED43D0F800B004F0030E0BEA050B0EFA45
:1005FC000CFE0AF1FF3A4EEA0B0EBAF1010FC0F8ED
:10060C0000E016D8D0F808E0CF6805EA0E0E07FA1D
:10061C000CFA4AEA0E0EC0F808E0D0F804E0019F8C
:10062C002EEA0707C4F3001E0EFA03FE4EEA070774
:10063C004760C7683D408F6807FA0CF73D43C560BB
:10064C00E50052D54FF00F0ED9F8205023F00307D8
:10065C0045F00105C9F82050D9F8205007F1804722
:10066C0005F00105039507F5803703F0030C039D96
:10067C004FEA8C0CBD680EFA0CFE25EA0E0E214DCD
:10068C00A84234D005F58065A84232D005F58065C6
:10069C00A84230D005F58065A8422ED005F58065BE
:1006AC00A84214BF0525042505FA0CF545EA0E05EC
:1006BC00BD60F743156814F4803F0CBF3D403543D3
:1006CC001560556814F4003F0CBF3D403543556030
:1006DC00956814F4801F0CBF3D4035439560D56878
:1006EC00A40254BF3D403543D560013349E7002592
:1006FC00DAE70125D8E70225D6E70325D4E700BFC2
:10070C000004014000000240003802400AB181613F
:10071C0070470904FBE7704708B5044B596901425F
:10072C0002D05861FFF7F7FF08BD00BF000401407D
:10073C0038B50446FFF744FD054623689B689B06C5
:10074C0001D5002038BDFFF73BFD401BB0F57A7F8B
:10075C00F3D901230320A36338BD000038B5044648
:10076C0000286BD090F8353003F0FF021BB980F8ED
:10077C00342000F023FF0223226884F835301368FC
:10078C0023F00103136000231846191D013302EBFB
:10079C008101102B4860F8D19368A16843F00403E1
:1007AC009360636850680B43A16A0B43E16A0B4387
:1007BC00E1690B43216A0B43A1690B43616A0B434B
:1007CC001F4901400B4353602046FFF7B1FF2069DE
:1007DC00E36822680343606911680343206B21F0CE
:1007EC00FE0103430B431360136843F001031360D2
:1007FC00FFF7E6FC054623689B68DA070CD5FFF784
:10080C00DFFC054623689B68DB060FD5002001231F
:10081C00A06384F8353038BDFFF7D2FC401BB0F52F
:10082C007A7FE8D90823A363032038BDFFF7C8FCFF
:10083C00401BB0F57A7FE5D91023F4E7012038BDD1
:10084C000F0000FC1C4B82B09A6812F0F00F0CD019
:10085C0000221A490B6823F0010313430B6008684C
:10086C0000F00100504002B070475A6A144912F06F
:10087C00805F0FD00A6802F4C052B2F5C05FE7D1B6
:10088C00B0F5404FE4D10D4A136843F004031360F4
:10089C000122DEE75A6A42F080525A625A6A02F02A
:1008AC0080520192019A0A68596A02F4C05221F0EE
:1008BC0080515962E1E700BF00380240003C024021
:1008CC000070004003682DE9F743D90704466AD449
:1008DC0023689A0700F1E6802368DE0655D5C14DE2
:1008EC00AB6813F00C0F40F083814FF4007393FA54
:1008FC00A3F2296893FAA3F3B3FA83F3012203F06A
:10090C001F0302FA03F30B4202D0A369002B6ED033
:10091C00B44D206A6B6803F46043984240F24A81FC
:10092C00FFF790FF002862D16B68226A23F46043C2
:10093C0013436B6069684FF07F4393FAA3F3B3FAE8
:10094C0083F2E369934021F07F4213436B604FF4D1
:10095C00604393FAA3F3B3FA83F0A24BF0219A68A5
:10096C0091FAA1F1B1FA81F1236A02F0F002C340CD
:10097C00581C4FF40043CA409B4983408A5C0020BA
:10098C00D3409A4A1360FFF7F3FB23681D0700F16D
:10099C0091812368580700F1D381626A002A40F0E4
:1009AC005782002024E08F4B9A6802F00C02082A30
:1009BC0007D09A6802F00C020C2A1CD19B68DB034E
:1009CC0019D54FF4003393FAA3F2864A116893FABF
:1009DC00A3F3B3FA83F3012203F01F0302FA03F328
:1009EC000B423FF475AF6368002B7FF471AF0120AD
:1009FC0003B0BDE8F08363687A4D012B20D12B68DE
:100A0C0043F480332B60FFF7DBFB4FF4003580465B
:100A1C000126744F95FAA5F33A6895FAA5F3B3FA43
:100A2C0083F303F01F0306FA03F313427FF450AF72
:100A3C00FFF7C6FBA0EB08006428EBD90320D7E72F
:100A4C0013BB2B684FF4003623F480332B602B68D8
:100A5C00012723F480232B60FFF7B2FB804696FA24
:100A6C00A6F32A6896FAA6F3B3FA83F303F01F03EE
:100A7C0007FA03F313423FF42BAFFFF7A1FBA0EBF4
:100A8C0008006428EBD9D9E7052B2B6803D143F474
:100A9C0080232B60B3E723F480332B602B6823F483
:100AAC008023AFE74F4B9A6802F00C02042A07D060
:100ABC009A6802F00C020C2A24D19B68DF0321D423
:100ACC00022393FAA3F2474A106893FAA3F3B3FAFA
:100ADC0083F3012103F01F0301FA03F303421346CE
:100AEC0002D0E2688A4282D158684FF4F85292FAE6
:100AFC00A2F2B2FA82F122698A4020F4F8510A4338
:100B0C005A60E9E6E268012582B395FAA5F3B3FAD7
:100B1C0083F303F1845303F58E139B001D60FFF7E1
:100B2C004FFB022780462F4E97FAA7F3326897FAAD
:100B3C00A7F3B3FA83F303F01F0305FA03F313428D
:100B4C000DD071684FF4F85393FAA3F3B3FA83F210
:100B5C002369934021F4F85213437360BCE6FFF70A
:100B6C002FFBA0EB08000228DED967E795FAA5F366
:100B7C00B3FA83F303F1845303F58E139B001A60CD
:100B8C00FFF71EFB02268046164F96FAA6F33A682C
:100B9C0096FAA6F3B3FA83F303F01F0305FA03F3F3
:100BAC0013423FF499AEFFF70BFBA0EB08000228B1
:100BBC00EBD943E76B6823F4604303436B606968CC
:100BCC004FF07F4393FAA3F3B3FA83F2E3699340B4
:100BDC0021F07F4213436B60FFF734FE00283FF493
:100BEC00B6AE04E700380240C01700080000002031
:100BFC00A2694FF48073002A37D093FAA3F3B3FAA7
:100C0C0083F3012603F1845303F58E139B001E60BE
:100C1C00FFF7D6FA4FF40077804697FAA7F32A68C5
:100C2C0097FAA7F3B3FA83F303F01F0306FA03F35F
:100C3C00134213D06B68226A23F4604313436B6036
:100C4C0069684FF07F4393FAA3F3B3FA83F2E36935
:100C5C00934021F07F4213436B6096E6FFF7B0FAA6
:100C6C00A0EB08000228D8D9E8E693FAA3F3B3FA6C
:100C7C0083F303F1845303F58E139B001A60FFF783
:100C8C009FFA4FF400768046012796FAA6F32A685D
:100C9C0096FAA6F3B3FA83F303F01F0307FA03F3F0
:100CAC0013423FF472AEFFF78BFAA0EB0800022858
:100CBC00EBD9C3E662690125A94902B395FAA5F3FC
:100CCC00B3FA83F30B449B001D60FFF779FA0226FD
:100CDC008046A44F96FAA6F37A6B96FAA6F3B3FA6B
:100CEC0083F303F01F0305FA03F313427FF451AEB1
:100CFC00FFF766FAA0EB08000228EBD99EE695FAFE
:100D0C00A5F3B3FA83F30B449B001A60FFF758FA70
:100D1C0002268046934F96FAA6F37A6B96FAA6F3C0
:100D2C00B3FA83F303F01F0305FA03F313423FF402
:100D3C0030AEFFF745FAA0EB08000228EBD97DE6B0
:100D4C00884B5A6AD10034D401265A6A42F0805238
:100D5C005A625B6A03F080530193019B824D2B68AE
:100D6C00DA0528D5A3687F4D012B34D16B6B43F486
:100D7C0080736B63FFF724FA4FF4007581460127EB
:100D8C00DFF8E08195FAA5F3D8F8342095FAA5F3AD
:100D9C00B3FA83F303F01F0307FA03F313424ED0A5
:100DAC00002E3FF4FAAD6F4A536A23F0805353621E
:100DBC00F3E50026D2E72B6843F480732B60FFF732
:100DCC00FFF907462B68DB05CCD4FFF7F9F9C01BFC
:100DDC006428F7D932E623BB6B6B4FF4007723F40E
:100DEC0080736B636B6B4FF0010823F480636B6350
:100DFC00FFF7E6F9814697FAA7F36A6B97FAA7F320
:100E0C00B3FA83F303F01F0308FA03F31342C7D0BA
:100E1C00FFF7D6F941F28833A0EB09009842EAD9E2
:100E2C000CE6052B6B6B03D143F480636B639DE77E
:100E3C0023F480736B636B6B23F4806399E7FFF788
:100E4C00BFF941F28833A0EB090098429AD9F5E535
:100E5C00444DAB6803F00C030C2B3FF4C8AD022AD5
:100E6C004FF0807356D193FAA3F3B3FA83F30022B5
:100E7C0003F1845303F58E139B001A60FFF7A0F95E
:100E8C002E4680464FF00077012597FAA7F332687B
:100E9C0097FAA7F3B3FA83F303F01F0305FA03F3EE
:100EAC00134230D1B268A36AE16A22F47D020B438B
:100EBC001343226B1343B3604FF0807393FAA3F385
:100ECC00B3FA83F303F1845303F58E139B001D6077
:100EDC00FFF776F94FF0007407460125214E94FA7E
:100EEC00A4F3326894FAA4F3B3FA83F303F01F0368
:100EFC0005FA03F313427FF454ADFFF761F9C01BFD
:100F0C000228ECD99AE5FFF75BF9A0EB0800022860
:100F1C00BBD993E593FAA3F3B3FA83F3002203F15D
:100F2C00845303F58E139B001A60FFF749F94FF0B9
:100F3C0000740746012694FAA4F32A6894FAA4F3E1
:100F4C00B3FA83F303F01F0306FA03F313423FF4DF
:100F5C0028ADFFF735F9C01B0228ECD96EE500BFB0
:100F6C00A0C1911000380240007000401E4910B51D
:100F7C008B6803F00C02082A05D00C2A05D0042A31
:100F8C0022D11A4810BD1A4810BD4FF4701292FAB3
:100F9C00A2F2B2FA82F203F4701020FA02F21548AF
:100FAC00845C4FF4400090FAA0F0B0FA80F203F4A5
:100FBC0040008B68D040DB034CBF0D4B0B4B01301A
:100FCC006343B3FBF0F010BD48684FF4604393FAF1
:100FDC00A3F3B3FA83F300F46040D840431C4FF4FE
:100FEC000040984010BD00BF003802400024F400BF
:100FFC0000127A00D01700086A4B2DE9F0411A68EC
:10100C00064602F001028A420D4630D3326894073C
:10101C0040D4D00746D4634B1A6802F001029542C3
:10102C00C0F0AE803268510700F1B380130707D5CA
:10103C005D4A3169936823F4605343EAC1039360BA
:10104C00FFF794FF584BF0229B6892FAA2F2B2FA87
:10105C0082F203F0F003D340544AD35CD840544B93
:10106C0018600020FFF784F80020BDE8F08101290A
:10107C0002BF1A6842F004021A601A6822F00102D8
:10108C000A431A601B6803F001039942BED0012089
:10109C00BDE8F0814449B0688B6823F0F00303434A
:1010AC008B60B6E772684049022A0FD14FF40033C7
:1010BC0093FAA3F0086893FAA3F3B3FA83F301212C
:1010CC0003F01F0301FA03F3034213E0032A02D1D6
:1010DC004FF00073ECE7012A29D1022393FAA3F015
:1010EC00096893FAA3F3B3FA83F303F01F0302FA2C
:1010FC0003F30B42CBD02C4C41F28838A36823F07D
:10110C0003031A43A260FFF75BF873680746022BD0
:10111C0010D1A36803F00C03082B3FF47CAFFFF74E
:10112C004FF8C01B4045F4D90320BDE8F0814FF4C3
:10113C000073BDE7032B0BD1A36803F00C030C2B3E
:10114C003FF469AFFFF73CF8C01B4045F4D9EBE71F
:10115C00012B10D1A36803F00C03042B3FF45BAFFD
:10116C00FFF72EF8C01B4045F4D9DDE7FFF728F850
:10117C00C01B4045D8D8A36813F00C0FF6D14AE732
:10118C001A6822F001021A601B68DA073FF57FAF7C
:10119C0048E70549F0688B6823F4E06303438B60F0
:1011AC0044E700BF003C024000380240C017000872
:1011BC000000002003682DE9F7430446980701D18D
:1011CC00002055E04F4B5A6AD1003FD401255A6A92
:1011DC0042F080525A625B6A03F080530193019B88
:1011EC00494E3368DA0533D5464B6268196802F00C
:1011FC00C04001F0C041814204D1A06800F0C04061
:10120C00814207D002F44031B1F5403F02D1196858
:10121C00880375D45B6B13F440332CD16068394B65
:10122C0000F44031B1F5403F06D11A6800F0C040DF
:10123C0022F0C04202431A605A6B11435963002DCD
:10124C00BED05A6A22F080525A62B9E70025C7E72D
:10125C00336843F480733360FEF7B2FF074633689C
:10126C00DB05C1D4FEF7ACFFC01B6428F7D9032003
:10127C0003B0BDE8F08302F44032934202D02268FE
:10128C00D10707D4A26802F440329342C6D0236837
:10129C009A07C3D51B4E4FF40003716B21F44030F9
:1012AC0093FAA3F2B2FA82F20127DFF860E07244FB
:1012BC009200176093FAA3F3B3FA83F300227344FA
:1012CC009B001A60CB057063A8D5FEF779FF4FF42D
:1012DC000078814698FAA8F3726B98FAA8F3B3FADF
:1012EC0083F303F01F0307FA03F3134296D1FEF7BF
:1012FC0067FF41F28833A0EB09009842EAD9B6E7C0
:10130C000120B5E70038024000700040A0C19110E8
:10131C0070B5002496B03422002109A800F036FAEA
:10132C000021142204A800F031FA184A0194029406
:10133C0003941368012523F4C05343F40063136032
:10134C000623099310230D934FF4002302261493C4
:10135C004FF4000309A815930B950C951296139452
:10136C00FFF7B0FA0F2304930323294604A805932F
:10137C00069407940894FFF73FFE4FF4803301A8BE
:10138C0001960393FFF716FF16B070BD0070004076
:10139C0000B589B0FEF700FFFFF7BAFF1422002159
:1013AC0003A800F0F3F9514B4FF40051DA6950489F
:1013BC0042F00402DA61DA69002402F004020092BD
:1013CC00009ADA69012642F00102DA61DA69494DC4
:1013DC0002F001020192019ADA6942F00202DA612A
:1013EC00DB69012203F002030293029BFFF78EF9E3
:1013FC000022C0214048FFF789F94FF4005303A99C
:10140C003B480393059406940496FFF7B1F83B4BC5
:10141C0003A93B48049305940396FFF7A9F8C0234E
:10142C0003A935480393059406940496FFF7A0F896
:10143C00224621460620FFF745F80620FFF776F8EE
:10144C00304B284685E818004FF000736B634FF063
:10145C008053AC60EC602C616C61AC61EC612C6213
:10146C006C62EC62AB63EC63039404940594AE621F
:10147C00FEF7ACFE042303A92846039305940496B7
:10148C00FEF762FF2048214B846080E818000C2393
:10149C00046144618461C461046204638462C46253
:1014AC00C360FFF75BF904F18044194D04F5013476
:1014BC002B78032BFCD8DFE803F002051017002271
:1014CC00C02106E0012280212046FFF71FF90022EF
:1014DC0040212046FFF71AF9EAE700228021204636
:1014EC00FFF714F90122F3E70122E9E70038024083
:1014FC0000080240640000200004024000001110AB
:10150C00000002400024014028000020002400407C
:10151C00200000201FB5114B07205A6A42F00042F0
:10152C005A625A6A02F000420192019A1A6A42F017
:10153C0001021A621A6A02F001020292029A5A6AB3
:10154C0042F080525A625B6A03F080530393039B10
:10155C00FEF7A6FF05B05DF804FB00BF00380240A3
:10156C0010B5044688B01422002103A800F00EF92F
:10157C002268104B9A421BD103F58A331A6A03A9CD
:10158C0042F400721A621A6A0B4802F40072019259
:10159C00019ADA6942F00102DA61DB6903F00103B6
:1015AC000293029B1023039303230493FEF7E0FFA3
:1015BC0008B010BD0024014000000240142270B598
:1015CC0004468AB00DEB0200002100F0DFF822681F
:1015DC00264B9A4247D103F505335A6A022642F448
:1015EC0000725A625A6A0B2502F400720192019A37
:1015FC00DA6905A942F00402DA61DA691C4802F0E2
:10160C0004020292029ADA69002442F00102DA61C1
:10161C00DA6902F001020392039ADA6942F00202DB
:10162C00DA61DB69069603F002030493049B40F62F
:10163C00CF7309950593FEF79BFF48F20E7305A92E
:10164C000C4805930696079408940995FEF790FFAD
:10165C004FF6387305A90848059306960794089425
:10166C000995FEF785FF0AB070BD00BF002400404D
:10167C000008024000000240000402407047FEE7F0
:10168C00FEE7FEE7FEE7704770477047FEF790BD38
:10169C00064A012013780133DBB213701378032B45
:1016AC0084BF00231370FFF737B800BF2000002061
:1016BC000E4B1A6842F480721A6099680C4A0A4000
:1016CC009A601A6822F0885222F001121A601A6885
:1016DC0022F480221A609A6822F47D029A60002219
:1016EC00DA604FF00062034B9A607047003802409A
:1016FC000CC0FF8800ED00E0002103E00B4B5B58B1
:10170C00435004310A480B4B42189A42F6D30A4A0A
:10171C0002E0002342F8043B084B9A42F9D3FFF74E
:10172C00C7FF00F00FF8FFF733FE7047E41700080F
:10173C00000000200400002004000020B80000205D
:10174C00FEE7000070B500250C4E0D4CA41BA41038
:10175C00A54209D100F022F800250A4E0A4CA41B20
:10176C00A410A54205D170BD56F825309847013517
:10177C00EEE756F8253098470135F2E7DC170008FC
:10178C00DC170008DC170008E017000803460244C9
:10179C00934200D1704703F8011BF9E7F8B500BF7D
:1017AC00F8BC08BC9E467047F8B500BFF8BC08BC36
:0417BC009E4670478E
:1017C00000000000000000000102030406070809F1
:0C17D000030406080C1018203000000074
:0417DC00610100089F
:0417E0003D010008BF
:0417E40068FF1F007B
:0400000508001705D3
:00000001FF
